:020000040000FA
:1000000099280830A60037088400350833193420B1
:10001000331D3620360884008417340980052608ED
:10002000031994283318692036088400A10CA00C09
:1000300000083404031C340680002120A60B142879
:10004000942837088400350880062008A20021087B
:10005000A3000030A10064304B202208A000230838
:10006000A10035088006080080043928FF3A800581
:100070003A28FF3A841780059428A301A200FF3094
:10008000A207031CA307031C94280330A100DF3040
:100090004B203F28A101E83EA000A109FC30031C31
:1000A0005428A00703185128A0076400A10F512865
:1000B00020185A28A01C5E2800005E280800013E77
:1000C000A7000A30A200A3017820A70B6428240807
:1000D0000800A201A3017028A10CA00CA20DA30D81
:1000E000FF3E03186C282308A1002208A0009428D2
:1000F000A501A4011030A600210DA40DA50D220814
:10010000A4022308031C230FA50203188E2822082B
:10011000A40723080318230FA5070310A00DA10DA2
:10012000A60B7C28200894288313031383126400F1
:100130000800C0309F008316FF308900FF30850023
:10014000F8308600FF308700FF30880003178801F1
:10015000890183120313BB01B801061564003B0833
:100160003C3C8A110A12031DBF28BB01B80A640077
:1001700038083C3C8A110A12031DBF28B8013B080D
:10018000A000A10100308A015F20BC003B08A00054
:10019000A10101308A015F20BD003808A000A10143
:1001A00000308A015F20B9003808A000A1010130A9
:1001B0008A015F20BA003C08093C8A110A12031C1C
:1001C000F9288A110A12E820BC008A110A12F928BB
:1001D00000308A003C08EF3E03188A0A82003F3450
:1001E00006345B344F3466346D347D3407347F34E9
:1001F0006F343D08093C8A110A12031C17298A1121
:100200000A120621BD008A110A12172901308A003C
:100210003D080D3E03188A0A82003F3406345B34E1
:100220004F3466346D347D3407347F346F3439088D
:10023000093C8A110A12031C35298A110A12242149
:10024000B9008A110A12352901308A0039082B3E7B
:1002500003188A0A82003F3406345B344F34663414
:100260006D347D3407347F346F343A08093C8A1189
:100270000A12031C53298A110A124221BA008A1158
:100280000A12532901308A003A08493E03188A0AA3
:1002900082003F3406345B344F3466346D347D3431
:1002A00007347F346F3406150630B6000130B400D1
:1002B0000630B7000230B5000130B3003C08A000A2
:1002C000A1018A0101203D08A000A1018A010120AD
:1002D0003908A000A1018A0101203A08A000A1016B
:1002E0008A01012006110330A300E8308A013E2074
:0602F000BB0A8A01AE28E2
:02400E00FC2F85
:00000001FF
