:020000040000FA
:100000002828A301A200FF30A207031CA307031C9A
:1000100023280330A100DF300F200328A101E83E90
:10002000A000A109FC30031C1828A00703181528FC
:10003000A0076400A10F152820181E28A01C222844
:1000400000002228080083130313831264000800B1
:10005000C0309F008316FF308500FF308600870187
:10006000FF308800FF3089008312850186018701F7
:1000700088018901831603178801890183120313FC
:10008000B8013F3087000330A300E8308A01022026
:10009000063087000330A300E8308A0102205B307D
:1000A00087000330A300E8308A0102204F30870028
:1000B0000330A300E8308A01022066308700033055
:1000C000A300E8308A0102206D3087000330A300CE
:1000D000E8308A0102207D3087000330A300E83039
:1000E0008A010220073087000330A300E8308A012C
:1000F00002207F3087000330A300E8308A0102200D
:100100006F3087000330A300E8308A010220B80175
:1001100064000A3038028A110A120318B728380816
:10012000093C8A110A12031CAD288A110A129C206C
:1001300087008A110A12AD2800308A003808A33ED1
:1001400003188A0A82003F3406345B344F34663425
:100150006D347D3407347F346F340330A300E830CE
:100160008A010220B80A8A110A12031D88288A010E
:02017000412824
:02400E00FC2F85
:00000001FF
