:020000040000FA
:100000004E28A301A200FF30A207031CA307031C74
:1000100049280330A100DF300F200328A101E83E6A
:10002000A000A109FC30031C1828A00703181528FC
:10003000A0076400A10F152820181E28A01C222844
:10004000000022280800013EA7000A30A200A301F8
:100050002D20A70B282824080800A501A401103092
:10006000A600210DA40DA50D2208A4022308031C3F
:10007000230FA502031843282208A4072308031806
:10008000230FA5070310A00DA10DA60B31282008F2
:10009000492883130313831264000800C0309F00B3
:1000A0008316FF308500FF30860087018801FF300E
:1000B00089008312850186018701880189018316E1
:1000C00003178801890183120313BA0164006430A5
:1000D0003A028A110A120318BF283A08A000A101A7
:1000E00000308A012320B8003A08A000A1010130A5
:1000F0008A012320B9003808093C8A110A12031C1E
:1001000099288A110A12882087008A110A129928D0
:1001100000308A0038088F3E03188A0A82003F3474
:1001200006345B344F3466346D347D3407347F34A9
:100130006F343908093C8A110A12031CB7288A1146
:100140000A12A62088008A110A12B72800308A00F5
:100150003908AD3E03188A0A82003F3406345B3406
:100160004F3466346D347D3407347F346F340A3055
:100170008A010120BA0A8A110A12031D66288A011F
:020180006528F0
:02400E00FC2F85
:00000001FF
