:020000040000FA
:100000002828A301A200FF30A207031CA307031C9A
:1000100023280330A100DF300F200328A101E83E90
:10002000A000A109FC30031C1828A00703181528FC
:10003000A0076400A10F152820181E28A01C222844
:1000400000002228080083130313831264000800B1
:10005000C0309F008316FF3085008601FF30870087
:10006000FF308800FF3089008312FF3086000330A4
:10007000A300E8308A01022086010330A300E830A3
:080080008A0102208A013528E3
:02400E00FC2F85
:00000001FF
