:020000040000FA
:100000002F28A301A200FF30A207031CA307031C93
:100010002A280330A100DF300F200328A101E83E89
:10002000A000A109FC30031C1828A00703181528FC
:10003000A0076400A10F152820181E28A01C222844
:100040000000222808000038031DFF300405031DAE
:10005000FF302A2883130313831264000800C03082
:100060009F008316FF308500FF3086008701FF3038
:1000700088000F308900831285018601870188017D
:100080008901831603178801890183120313030171
:100090000518FF30B8000301851CFF30BA0038088E
:1000A00084003A088A012320BA00BB000301051D21
:1000B000FF30BC003C0884003A083B048A0123203E
:1000C0008A110A12031DA1280301051CFF30B80084
:1000D00003018518FF30BA00380884003A088A0105
:1000E0002320BA00BB000301051DFF30BC003C0803
:1000F00084003A083B048A0123208A110A12031D56
:10010000BB280301051CFF30B8000301851CFF302C
:10011000BA00380884003A088A012320BA00BB00DC
:1001200003010519FF30BC003C0884003A083B0479
:100130008A0123208A110A12031DC62887018A0119
:10014000472818308700C8308A0101203C308700DA
:10015000C8308A0101207E308700C8308A01012022
:10016000FF308700C8308A0101208701C8308A012A
:1001700001208A014728FF308700C8308A0101200A
:100180008701C8308A0101208A0147280F30870083
:10019000C8308A010120F0308700C8308A01012070
:0401A0008A01472861
:02400E00FC2F85
:00000001FF
